:020000041000EA
:1000000000B5324B212058609868022188439860DF
:10001000D860186158612E4B002199600221596106
:100020000121F02299502B49196001219960352056
:1000300000F044F80222904214D00621196600F024
:1000400034F8196E01211966002018661A6600F04E
:100050002CF8196E196E196E052000F02FF8012189
:100060000842F9D1002199601B49196000215960AB
:100070001A491B48016001219960EB211966A021F2
:10008000196600F012F800219960164914480160C1
:100090000121996001BC002800D000471248134993
:1000A000086003C880F30888084703B5996A0420EC
:1000B0000142FBD001200142F8D103BD02B5186610
:1000C0001866FFF7F2FF186E186E02BD00000240BE
:1000D000000000180000070000035F00212200005C
:1000E000F4000018222000A00001001008ED00E03C
:1000F00000000000000000000000000074B24E7A12
:1001000000200420F7010010C3010010C5010010F9
:10011000C1010010C1010010C1010010C101001097
:10012000C1010010C1010010C1010010C701001081
:10013000C1010010C1010010C9010010CB01001065
:10014000CD010010CD010010CD010010CD01001037
:10015000CD010010CD010010CD010010CD01001027
:10016000CD010010CD010010CD010010CD01001017
:10017000CD010010CD010010CD010010CD01001007
:10018000CD010010CD010010CD010010CD010010F7
:10019000CD010010CD010010CD010010CD010010E7
:1001A000CD010010CD010010CD010010CD010010D7
:1001B000CD010010CD010010CD010010CD010010C7
:1001C00000BE00BE00BE00BE00BE00BEEFF3058054
:1001D000103800BEF2EB8871C4781310EC7813105D
:1001E0003402001090A31AE700201F49086006C8D7
:1001F00081F3088810471D48006800282FD10DA4FE
:100200000ECC002902D000F012F8F9E71849194A7B
:10021000002000E001C19142FCD1174988471749ED
:1002200088471749884700BEFDE701C901C29A42C5
:10023000FBD37047EC781310C0000020901E002004
:10024000BC9613100000042000000420BC9613107C
:10025000001004200010042000000000704709482E
:1002600004F014FC0047000008ED00E0000000D09E
:10027000901E00207C3A0020C93700106503001052
:10028000873700105756000006005250ABB360533A
:100290009CA7041006005250861C0302ACA7041051
:1002A000060052505422A29DB8A7041005005250D7
:1002B000DE65F468BC961310F8B5C04610B5064C60
:1002C0002378002B07D1054B002B02D0044800E017
:1002D00000BF0123237010BD901F0020000000000C
:1002E000F08D0410044B10B5002B03D003490448D3
:1002F00000E000BF10BDC04600000000941F0020B9
:10030000F08D041010B50F2800D010BD054C2068EA
:100310000130032104F0E6FB2160034B01221A7037
:10032000F3E7C046CC120020D012002070B50400C4
:100330000D00012805D0002C02D1074B9D4207D0AB
:1003400070BD054B9942F6D1044808F099FBF2E7DD
:10035000024808F0A5FBF3E7FFFF00000436002089
:1003600070470000F0B5B04CA54401F01DF9AF484E
:10037000684400F05DFE0C21AD48684400F09CFD2F
:10038000AC4B6B44180000F07DFBAA4B6B4418008B
:1003900000F03EFBA84B012204210F2001F0BCF924
:1003A0001EE0042B00D007E2A44B01221A70A44CDB
:1003B0001032A449200025F007F923680C3B186887
:1003C0000019C46F002C00D1EAE1237F002B00D17B
:1003D000E8E12723E15C9A4825F086F825F000F84B
:1003E000994B1B68022B00D18CE0DADC002B00D18A
:1003F0003CE1012B00D0DFE1944B6B448C4A6A4412
:100400001068186094685268A41AA41000225A60F8
:100410009A60DA60002C00D1B4E180239B059C42F5
:1004200000D3ADE1A00005F049FC0500874B6B440B
:100430005D609D60A4002C19DC602E00844B6B4431
:100440001868FFF78DFF0400824B6B441868FFF7B4
:1004500087FF071B844204D03A00210028003BF0AC
:1004600063FDF619794969448E60714B6B445C6990
:100470001B69E41AA41000230B614B618B61002CF3
:1004800000D183E180239B059C4200D37CE1A00046
:1004900005F014FC05006D4B6B441D615D61A4000B
:1004A0002C199C612E006C4B6B441868FFF758FFA9
:1004B000040083235B016B441868FFF751FF071B9F
:1004C000844204D03A00210028003BF02DFDF619AB
:1004D0005E4C6C446661FF231B04604A21000020CF
:1004E00000F03CFE2069A169091A002801D005F03E
:1004F000F5FB564B6B445868D968091A002801D09F
:1005000005F0ECFB564B6B44494A6A44106818608E
:1005100094685268A41AA41000225A609A60DA60A3
:10052000002C00D136E180239B059C4200D32FE1B3
:10053000A00005F0C3FB0500494B6B445D609D6066
:10054000A4002C19DC602E00414B6B441868FFF7A7
:1005500007FF04003F4B6B441868FFF701FF071BC0
:10056000844204D03A00210028003BF0DDFCF6195B
:100570003B4A6A4496602E4B6B445C691B69E41AE3
:10058000A4100023136153619361002C00D105E195
:1005900080239B059C4200D3FEE0A00005F08EFB6B
:1005A00005002F4B6B441D615D61A4002C199C61FB
:1005B0002E00294B6B441868FFF7D2FE04008323FA
:1005C0005B016B441868FFF7CBFE071B844204D025
:1005D0003A00210028003BF0A7FCF619204D6D449D
:1005E0006E61144C6C441F4B6B441D601D4A1E49C8
:1005F0006944684605F05CFB20686168A268E368AE
:1006000000F006FF2869A969091A002801D005F041
:1006100065FB134B6B445868D968091A002800D150
:10062000C2E605F05BFBBFE63CEFFFFF6810000091
:100630004C1000002408000005030010D012002018
:1006400034330020F08D0410CC12002088100000FC
:1006500050100000541000005C10000000CBC0FFE0
:10066000A410000018080000340800006A4B6B4416
:100670006A4A6A441068186094685268A41AA41000
:1006800000225A609A60DA60002C73D080239B05A8
:100690009C426DD2A00005F011FB05005E4B6B443F
:1006A0005D609D60A4002C19DC602E005C4B6B44E7
:1006B0001868FFF755FE04005A4B6B441868FFF7A3
:1006C0004FFE071B844204D03A00210028003BF073
:1006D0002BFCF619504A6A449660504969444B69AC
:1006E00009695B1A9C100023136153619361002C0C
:1006F00044D080239B059C423ED2A00005F0DEFA48
:100700000500454A6A4415615561A300EB189361E1
:100710002E00454B6B441868FFF722FE040083232C
:100720005B016B441868FFF71BFE071B844204D073
:100730003A00210028003BF0F7FBF619364C6C44D8
:100740006661FF210904200000F0ECF82069A1692E
:10075000091A002801D005F0C1FA2F4B6B445868E4
:10076000D968091A002800D146E605F0B7FA43E631
:100770001AF08AFC002591E71AF086FC0025C0E7F4
:100780001AF082FC002551E61AF07EFC002582E674
:100790001AF07AFC0025CFE61AF076FC002500E777
:1007A0001AF082FC20000EF0D7FA23689B690A2118
:1007B0002000984701000EE61C4B1B78002B06D04A
:1007C000FA20400002F018F9184B00221A70184C59
:1007D0000D221849200024F0F7FE23680C3B18680E
:1007E0000019C46F002C0AD0237F002B09D02723C7
:1007F000E15C0F4824F078FE24F0F2FDF0E51AF0F9
:1008000053FC20000EF0A8FA23689B690A212000FF
:1008100098470100EDE7C0466C1000004C10000046
:1008200050100000541000005C100000D012002096
:1008300034330020048E041010B502490120FFF764
:1008400075FD10BDFFFF0000F0B5C64600B582B0D3
:1008500004000D001E4B1B78834203D902B080BCFC
:10086000B846F0BD02F07CF900291FDB24D0FA2243
:100870009200002304F09CF90600FA218900300060
:1008800004F058F98046FA218900300004F052F94A
:100890000A00012C18D0022C18D0002C12D0009580
:1008A0003B0041460B4805F0E1FBD7E70A4B0B4AFA
:1008B0003F210B4802F06AFFFA21890004F03AF95F
:1008C0000600DAE7074FEAE7074FE8E7074FE6E7F2
:1008D000743A0020E88E0410308E04104C8E041000
:1008E000848E0410248E04101C8E0410148E0410A8
:1008F00070B504000D00012805D0002C02D1074B73
:100900009D4207D070BD054B9942F6D1044808F0CE
:10091000B7F8F2E7024808F0C3F8F3E7FFFF00007A
:1009200008360020F8B5CE46474680B50500894612
:100930000023984620E0280000F02AFA322002F036
:100940005BF801340C2342469B1AA3420ED9E7B24E
:100950004A463900280000F005FA002CEBD0013F90
:10096000F9B20022280000F0FDF9E4E7322002F09D
:100970004DF901239C46E04443460B2B01D800244B
:10098000E0E70D271AE0280000F002FA322002F01A
:1009900033F8013C0C23DB1BA3420ED2E6B2711EDE
:1009A000C9B20022280000F0DDF90B2CEBD84A4632
:1009B0003100280000F0D6F9E5E7013F002F01D013
:1009C0000C24E7E7C0BCB946B046F8BD10B50249F3
:1009D0000120FFF78DFF10BDFFFF000070B5040080
:1009E0000D00012805D0002C02D1074B9D4207D0F5
:1009F00070BD054B9942F6D1044808F041F8F2E782
:100A0000024808F04DF8F3E7FFFF00000C36002025
:100A100070B5040005F08EFF1F211A2000F0F0FDD4
:100A2000002200211A2000F003FE00211A2000F00D
:100A3000CFFE0F4D2B68E022D20113400D4A136008
:100A40008721C905606A04F0BCFF05F039F8286108
:100A5000094B1B6801225340084A1340084A13609F
:100A6000802101230022C900200006F007F970BD93
:100A700000C0044000D0044008C004400F00000F34
:100A800008D0044010B504001822002105F00AF92E
:100A90000A4BA3610A4BE3618023DB002362094B0D
:100AA00063622000283080221201074905F000F916
:100AB0002000FFF7ADFF200010BDC04644AC000091
:100AC000006CDC02EFED8744FC8E0410104B082212
:100AD0001A6000228023DB009A420ADA50000818CC
:100AE0000C4B9B68DB05FBD40A4BDB6803800132AF
:100AF000F0E7094B08221A60064B1B68DB05FBD5A3
:100B0000044B9B68DB0502D4024BDB68F8E77047B7
:100B100000E0044000C0044000F0044030B5140080
:100B20000023002003E05A00525A8018013380222B
:100B3000D2009342F7DBC517AD05AD0D2D18AD12F0
:100B4000002005E042008B5A5B1BDB00A352013002
:100B50008023DB009842F5DB30BD70B5050008004E
:100B6000002208E05100445E6B1828269B5F634317
:100B7000DB13435201328023DB009A42F2DB70BD6B
:100B800010B5140006F0B2F9002304E05800215E0D
:100B9000490221520133024A9342F7DD10BDC0469B
:100BA0000104000010B508001400074A210005F0F8
:100BB00006FF002304E05800215EC91021520133D2
:100BC000024A9342F7DD10BD020400000104000058
:100BD00010B514000623072B07DC5A00525E20686C
:100BE0008446624422600133F5E708230A2B07DCC0
:100BF0005A00525E60688446624462600133F5E7E1
:100C00000B230F2B07DC5A00525EA0688446624417
:100C1000A2600133F5E71023172B07DC5A00525E60
:100C2000E06884466244E2600133F5E71823222B32
:100C300007DC5A00525E2069844662442261013317
:100C4000F5E72323322B07DC5A00525E60698446A5
:100C5000624462610133F5E733234A2B07DC5A0013
:100C6000525EA06984466244A2610133F5E74B23DA
:100C70006D2B07DC5A00525EE06984466244E261F3
:100C80000133F5E76E23A02B07DC5A00525E206A81
:100C90008446624422620133F5E7A123EC2B07DC92
:100CA0005A00525E606A8446624462620133F5E72C
:100CB000ED2306E05A00525EA06A84466244A262B6
:100CC0000133AE2252009342F4DD5E23FF3306E08F
:100CD0005A00525EE06A84466244E2620133802236
:100CE00092009342F4DD23685B082360032160686F
:100CF00003F020FF60600521A06803F01BFFA060E7
:100D0000E368DB08E3600B21206903F013FF206137
:100D100063691B0963611821A06903F00BFFA061DF
:100D20002321E06903F006FFE0613321206A03F02C
:100D300001FF20624C21606A03F0FCFE60627021BA
:100D4000A06A03F0F7FEA062A321E06A03F0F2FEBE
:100D5000E06210BD10B502490120FFF73FFE10BD53
:100D6000FFFF00000368994202DA436889005A5085
:100D7000704770B505000E00002405E0E1B23200B6
:100D80002800FFF7EFFF01342B68A342F6D870BDAF
:100D900070B5040000252368AB4212D9AA0063682D
:100DA0009958084B5B68DB03FBD4064B19616368F9
:100DB0009B5821698B50C820002101F0F1FE0135BC
:100DC000E9E770BD00002050F0B587B00600354C53
:100DD0003549200005F0CEFC050006210E2000F06C
:100DE0000FFC012300930E220021200005F0DEFC01
:100DF0001022002102A804F055FF80235B02029319
:100E0000F8235B0203938021C9020491C0231B03D2
:100E10000493EA1CEB011203134303938020800523
:100E20000590224A13400393E02292010243059267
:100E30001F4B0B4304938022D205134304930520D8
:100E400002F0CAFB04F015FE1A4904F0A4FD071CC9
:100E500004F036FE84B2002C22D0200004F009FEFB
:100E6000011C381C04F08DFD8721C90504F0A9FD83
:100E700004F026FEC3B21B0224041C430294094C56
:100E800002AB2A000021200005F0E2FC23680122C9
:100E90009343134323603000FFF77AFF07B0F0BDA0
:100EA0000023E8E70000205030970410FFFFFF9F69
:100EB000000002300024F44AF8B505000C000700D9
:100EC00002C70E0080239B05994217D2002343607E
:100ED0007B60BB60002916D080239B05994210D20D
:100EE000880004F0EBFE68607860A300C018B8606A
:100EF0006B68002E2CD0A100591808E01F481AF08A
:100F0000FBF81AF0C1F80020EDE7002204C3994273
:100F1000FBD179602F00103780239B059E4219D2A8
:100F200000232B617B60BB60002E18D080239B05C3
:100F30009E4212D2A00004F0C1FE28617860A30096
:100F4000C018B8602B69002E15D0A10059180AE00E
:100F50001900DEE709481AF0CFF81AF095F80020DA
:100F6000EBE7002204C39942FBD179602800FFF728
:100F70002BFF2800F8BD1900F7E7C046FC960410C7
:100F800070B504000D00012805D0002C02D1074BDC
:100F90009D4207D070BD054B9942F6D1044807F039
:100FA0006FFDF2E7024807F07BFDF3E7FFFF00006B
:100FB0001036002000B585B06B4619735A730123B3
:100FC0000093013303AA1921064805F023FB0228E8
:100FD00002D1012005B000BD03490220FFF734FC17
:100FE0000020F7E7881300204097041010B5040094
:100FF0000D490E4805F0E2FA0321102000F000FB35
:101000000321112000F0FCFA00220121102000F041
:101010000FFB00220121112000F00AFB7722202182
:101020002000FFF7C7FF10BD801A060088130020BC
:1010300010B50400FFF7DAFF200010BD30B585B011
:1010400015001C000F226A441170C9B280235B4254
:101050000B4313700123009319210F4805F0DAFAAE
:10106000012806D00D490220FFF7EEFB002005B055
:1010700030BD0023009323002A001921064805F003
:10108000D5FA00B2A04201D10120F0E704490220C4
:10109000FFF7DAFB0020EAE78813002080970410AE
:1010A000BC97041070B582B00E0015001C0006231A
:1010B0006A462821FFF7C2FF6B461B786A465278C2
:1010C000120213431BB29B1133806B469978DB7875
:1010D0001B02194309B2891129806B461A795B7981
:1010E0001B021A4312B292112280012002B070BD7D
:1010F00010B5080004F002F80022054B03F085FF4C
:101100000022044B03F063FF04F078F810BDC046E2
:101110000000104000408F4010B502490120FFF749
:101120002FFF10BDFFFF000070B504000D00012867
:1011300005D0002C02D1074B9D4207D070BD054B56
:101140009942F6D1044807F09BFCF2E7024807F009
:10115000A7FCF3E7FFFF000014360020F0B5D646E9
:101160004F464646C0B588B005AD28700C00914684
:101170009846002304AAD381938153810A3394466D
:10118000634407AA0E2161442800FFF78BFF04ABDC
:101190000E21595E2800FFF7ABFF071C04AB0C21A2
:1011A000595E2800FFF7A4FF061C04AB0A21595E14
:1011B0002800FFF79DFF82467C4D03227C492800D2
:1011C00024F002FA381C04F083FC02000B000292A7
:1011D0000393280024F036FB05000522754924F00E
:1011E000F3F9301C04F074FC02000B000092019330
:1011F000280024F027FB050005226F4924F0E4F9BC
:10120000504604F065FC02000B00280024F01AFB95
:1012100001226A4924F0D8F900212000FFF7A9FD36
:1012200001239A460021381C04F012FC002801D149
:1012300000239A460125624A624B0298039903F003
:101240002FFF002800D1002553461D40EDB2002D90
:101250002FD10021381C04F0FBFB002871D10123A1
:101260009A460021381C04F0E5FB002801D1002338
:101270009A460125524A544B0298039903F026FFDF
:10128000002800D1002553461D40EDB2002D5ED14F
:101290000021381C04F0CEFB00285ED14A4605210F
:1012A0002000FFF75FFD4A4606212000FFF75AFDA8
:1012B00004E04A4606212000FFF754FD01270021E3
:1012C000301C04F0C5FB002800D1002701253C4A52
:1012D0003C4B0098019903F0E3FE002800D1002563
:1012E0003D40EDB2002D3ED10021301C04F0B0FB9A
:1012F000002849D101270021301C04F09BFB002865
:1013000000D1002701252E4A2F4B0098019903F0A8
:10131000DDFE002800D100253D40EDB2002D39D181
:101320000021301C04F086FB002839D142460121FF
:101330002000FFF717FD424602212000FFF712FDB3
:1013400016E04A4607212000FFF70CFDB6E74A46A3
:1013500005212000FFF706FDB0E74A4604212000E2
:10136000FFF700FDAAE7424602212000FFF7FAFC42
:101370002000FFF70DFDC82001F03EFB08B0E0BCE7
:10138000BA46B146A846F0BD424603212000FFF709
:10139000E9FCEDE7424601212000FFF7E3FCE7E727
:1013A000424600212000FFF7DDFCE1E73433002056
:1013B000EC970410F0970410F897041020F0121026
:1013C0009A9999999999B93F9999B9BF10B50249D4
:1013D0000120FFF7A9FE10BDFFFF000070B504005B
:1013E0000D00012805D0002C02D1074B9D4207D0EB
:1013F00070BD054B9942F6D1044807F041FBF2E776
:10140000024807F04DFBF3E7FFFF0000183600200D
:1014100084B030B5484CA544484C02ADAC46644459
:101420002060474860440160464961440A60464A7A
:1014300062441360454B63441D68802424012200EC
:1014400000214348604404F02DFC414B02AA94461D
:101450006344190039486044FFF738FB220000213B
:101460003C4802AB9C46604404F01CFC394B02AA89
:10147000944663441A00364B634419002F48604475
:10148000FFF74CFB334B02AA9446634419002B48E8
:101490006044FFF762FB304C220000212F4802AB72
:1014A0009C46604404F0FEFB2C4B02AA9446634425
:1014B0001A00284B6344190020486044FFF760FB82
:1014C000220000210EA804F0EDFB0EAA234B02A976
:1014D0008C466344190019486044FFF763FB3022CF
:1014E000002102A804F0DEFB02AA0EA913489446CC
:1014F0006044FFF76DFB002307E0990002AA8A58B9
:101500000192120202A80A5001330B2BF5DD0024D0
:1015100007E0A30002AA9A58E1B22800FFF722FCD4
:1015200001340B2CF5DD2800FFF732FC0C4B9D44F9
:1015300030BC08BC04B01847BCDFFFFF48200000E7
:101540004C200000502000005420000070280000B3
:1015500038180000381000000408000034080000AB
:101560004420000010B502490120FFF737FF10BDED
:10157000FFFF000070B504000D00012805D0002C0D
:1015800002D1074B9D4207D070BD054B9942F6D161
:10159000044807F075FAF2E7024807F081FAF3E72A
:1015A000FFFF00001C36002030B50F4CA54404F0AE
:1015B00069FD0F2000F024F9D024240680252D0297
:1015C000A5620F2000F01CF96562002201210F20A6
:1015D00000F02EF86846FFF755FA6846FFF718FA4C
:1015E000024B9D4430BDC046D4F7FFFF2C080000DD
:1015F00010B502490120FFF7BDFF10BDFFFF00003D
:1016000010B58300084A944663441C684022624037
:10161000C02414408022520113431C60C000034BBD
:101620009C466044416010BD04C001400040014040
:1016300080000B4B9C46604400290DD00823002AF3
:101640000CD004221343026853400C221340802222
:1016500052011043036070470023F0E70022F1E7D6
:1016600004C0014070B50400D0231B061D68AA0009
:101670000C4BD358002B0AD0002803D0AD00094BE7
:10168000EC5070BD08490D2000F0E6FAF6E700289E
:10169000F7D0AD00034BE850002203490D2000F0C5
:1016A000C1F9EEE7A43700203917001007230340E3
:1016B0009B00C00899403C308000014BC1507047EE
:1016C00000400140F8B507000C0016001D00FFF7B0
:1016D000EDFFFB089B00ED18072038408000844098
:1016E000002E04D080239B011D432C60F8BDC02335
:1016F0009B011D432C60F9E710B5D0231B061B6826
:10170000002B03D0024BFFF7DDFF10BD014BFAE7C2
:10171000304101400041014070B514001D00FFF749
:10172000EBFF2800FFF79EFF002C00D170BD0121C8
:101730000D2000F03DF9F9E7F0B5D6464F46464694
:10174000C0B5D0231B061F68BA001D4BD35898465E
:10175000002F03D01B4B9946002623E01A4B9946D5
:10176000FAE724090135002C1BD033000833AB42C3
:1017700017D90F231A00224092462342F1D0BB0012
:10178000124A9A580123AB401342EAD1514628002D
:10179000FFF78CFF4346002BE3D051462800C0479B
:1017A000DFE708361D2E06D8F30808339B004A46AB
:1017B0009C583500D7E7E0BCBA46B146A846F0BD14
:1017C000A43700203041014000410140443800204E
:1017D000002909D08000094B9C46604480239B016E
:1017E00018434023036070478000044B9C466044CC
:1017F000C0239B01184340230360F4E704C0014069
:1018000010B501238340D022120693629361052113
:10181000FFF7F6FE10BD0000034B1B6802201840C6
:10182000431E9841C0B2704700C00640EFF31080DD
:1018300072B6034B1B68002BFBD0BFF35F8F704762
:101840002C0100D0BFF35F8F024B00221A6080F39F
:10185000108870472C0100D0F8B506000C00150068
:10186000FFF7E4FFE308F718F15C072222400123A9
:1018700093400B4205D1DBB20B433B70FFF7E2FF15
:10188000F8BD2100280002F01BF80000002307E04B
:10189000054A9A189200BFF35F8F0021116001334F
:1018A0001F2BF5D97047C04640000034054A107818
:1018B000431CDBB21370172B02D9130010221A70CD
:1018C0007047C046D1120020074B9B681030800043
:1018D0001950BFF35F8FBFF35F8F044B0021196076
:1018E00082F310887047C04600ED00E0240100D06C
:1018F00010B5091A081F0A4B9C466144094A9142D7
:1019000008D8C30706D440104005400D064B1843C5
:1019100080B210BD054B064AA321064801F036FFF0
:10192000FC070000FE0F000000E0FFFF009804101D
:10193000709A04103098041010B5091A04394C0834
:10194000090B08D14905490D064A11430180064B90
:101950002343438010BD054B054AAB21054801F0E8
:1019600015FFC04600F0FFFF00F8FFFF8C98041041
:10197000449A04103098041001238340034A1068ED
:101980001840431E9841C0B27047C04600E100E0D5
:10199000002904D0034B1860034B18607047034BB9
:1019A0001860FBE780E200E000E100E080E100E099
:1019B00010B5012383401800FFF7EAFF10BD0000B7
:1019C000024B9B6810308000C058704700ED00E06B
:1019D00070B504000D00EFF3108672B60C4B1B6857
:1019E000002BFBD0BFF35F8F2000FFF7E9FF094B0F
:1019F000984201D0A84205D1320029002000FFF70B
:101A000063FF70BD044B054A8621054801F0BEFE08
:101A1000240100D0CD0100109C980410A49A041059
:101A200030980410F0B5DE4657464E464546E0B5C0
:101A300089B0814601911500EFF3108A72B6744B9C
:101A40001B68002BFBD0BFF35F8F724B0027DF5763
:101A5000002F40DB7C00E419A4006F482418062204
:101A6000A2566C4B1A706D4B9A684B4610339B0014
:101A7000D35898461E001B1A2F2B38D9684B98450F
:101A80002FD105AE674B33807B009B46D819800071
:101A9000614B9846404402306349FFF729FF70804C
:101AA000624BB380FF23B371F571019B07935F44D1
:101AB000BF0047440ECE0EC701231C43A04652462A
:101AC00041464846FFF700FF09B0F0BCBB46B246AE
:101AD000A946A046F0BD564B564AD721564801F0BC
:101AE00055FE564B534ADE21534801F04FFEC0438A
:101AF00040440C2103F01EF8002912D101239E431B
:101B0000B34633000026DA79AA4211D90621595684
:101B100000290CDB4A00521892001E003E4B9B1815
:101B2000F1E7474B434AEA21434801F02FFE1E00EC
:101B3000002E3AD005AB434A1A80813A5A800623D8
:101B4000F3560293002B17DA3F4805AB9B4698806B
:101B5000029A9A71DD71019A0792301D2100FFF7F8
:101B6000C7FEB080B7717B00DB199B002A4FFF18BE
:101B70005B4607CB07C7A2E77800C0198000264B59
:101B8000C0180430321DB388D90A1C2907D15B055F
:101B90005915023149005118FFF7AAFED5E72B4B22
:101BA0002B4AB121244801F0F1FD05AE1D4B3380D5
:101BB0007B000293D8198000174A904602004244E5
:101BC0000392901C1849FFF793FE7080039A101D32
:101BD0005946FFF78DFEB0801E4B5A464146521AB9
:101BE000524153431B0DB371F571019A0792029B49
:101BF0009C466744BF0047440ECE0EC7114B5A4661
:101C00001380813B538001231C43A04657E7C04605
:101C1000240100D0783A0020D412002000ED00E02A
:101C2000CD01001000A1FFFF0413002001BDFFFF44
:101C3000D49804108C9A041030980410FC98041066
:101C4000249904100148000001BD00009899041077
:101C50007C9A0410AAAA0000F0B5CE46474680B58B
:101C600083B006000D00EFF3108872B6564B1B6868
:101C7000002BFBD0BFF35F8F544B9A6834001034B5
:101C8000A300D758524B9F4207D0AF4200D198E0F3
:101C90000197504BFB1A2F2B09D9424639003000CF
:101CA000FFF712FE03B0C0BCB946B046F0BD30002D
:101CB000FFF762FE814600213000FFF779FEBFF397
:101CC0005F8FEFF30581002901D08C4211D10123F0
:101CD000019C9C430022A368AB4212D00622A2566C
:101CE000002A0DDB53009B189B002200394CE4189E
:101CF000F1E73621384B394AFF31394801F046FDCA
:101D00002200AB4256D106256557002D38DB6B000B
:101D10005B199A002F4B9B189A68A260DA79E271DE
:101D200006229A56A2719B795BB2002B0FDA2D48DE
:101D3000A0806B005B199B00264AD3182A4A1178B1
:101D40009971157049463000FFF732FEA5E7201D56
:101D50006B005B199B001F4A9B181A1D9B88D90AB0
:101D60001C2907D15B055B15023359005118FFF799
:101D7000BFFDDDE71D4B1E4AB121194801F006FDEC
:101D8000002912D1002A0ED0FF239371194B9380A2
:101D9000154A1378A371184B0E49641A64416343C2
:101DA0001B0D1370CEE70A4FF2E7201D1349FFF712
:101DB000C3FDC7E76A21124B084AFF31084801F00A
:101DC000E5FC034F69E7C046240100D000ED00E0C8
:101DD000CD010010D4120020B09904105C9A0410B8
:101DE0003098041001BD0000783A00209899041042
:101DF0007C9A041001BDFFFFAAAA00000E13002068
:101E0000E499041070B5012101432E4BCB1A2F2BFE
:101E100028D8EFF30583002B2BD0EFF3108C72B68C
:101E2000294A1268002AFBD0BFF35F8F274A0400BB
:101E3000244D641B64416243120D54B2244A9268DB
:101E40009B00D2588A421BD00022032A32D853006A
:101E50009B189B001B49CB189B795BB2A3421FD0F8
:101E60000132F2E7C7211B4B1B4A49001B4801F016
:101E70008DFC92211A4B184AFF31184801F086FC5C
:101E8000134A92681749D150174B1A7882711C7007
:101E9000BFF35F8F0C4B00221A608CF3108870BD6B
:101EA0000D005300991889006918FF268E710F4A9A
:101EB0008A80E9E7D1210E4B074A4900074801F023
:101EC00065FCC046D4120020240100D0AAAA00005C
:101ED00000ED00E0EC990410289A041030980410EA
:101EE000149A0410CD010010783A002001BDFFFFC4
:101EF000209A04100022044B02E0044902C301327C
:101F0000072AFAD97047C04600E400E0808080804C
:101F1000024B9C46614489000160704740000034D8
:101F200010B50400FFF7C2FC01002000FFF7F0FF2E
:101F3000FF232371BFF35F8F10BD10B50400FFF7BF
:101F4000B5FC01002000FFF7E3FFFF23237100230E
:101F50006371BFF35F8F10BD70B505000C00080002
:101F600000F028FF0949200000F068FEFFF79EFC02
:101F7000074B9C466044800068602C75D0231B068C
:101F80001B786B75A400034BE55070BD9D220010BB
:101F900040000034303800200A4B1A68EFF31081FB
:101FA00072B61368002BFCD0BFF35F8F054B1B6824
:101FB000BFF35F8F00221A6081F3108840BF0020BA
:101FC00000217047583A002010B5002922D003683C
:101FD0001B7B99421ED8174B9C46614409018368BC
:101FE0009C4661440C684968002A19D003681B7B31
:101FF0009A4215D883680F488446624412019A18A1
:1020000010685368020001208B4201D80ED00020D6
:10201000C0B210BD084B094A3C21094801F0B6FB8B
:10202000054B064A3C21064801F0B0FBA242EFD81E
:10203000EDE7C046FFFFFF0FF49B0410749E0410F1
:10204000A09B041010B500291ED0037B99421BD819
:102050004B005B18033B0468A4466344002919D075
:10206000002A1DD0914221D0002A25D0047BA24213
:1020700022D804685000801803382018817019781D
:1020800000291FD11A7010BD104B114A6821114848
:1020900001F07CFB104B114A6F310E4801F076FBCA
:1020A0000F4B0E4A70210B4801F070FB0D4B0B4A91
:1020B0007121084801F06AFB044B054A6821054874
:1020C00001F064FB41701A70DDE7C046189C0410F3
:1020D000E09E0410349C04109C9C0410BC9E0410D0
:1020E000A89C0410B49C041070B506000D001400E8
:1020F000002914D0002A14D08068736898470028FB
:1021000006D0220029003000FFF79CFF280007E0DE
:102110002A0021003000FFF795FF200000E01000AA
:1021200070BD0800FCE70000F0B583B00500009228
:1021300001930AAB1C780BAB1F78002C26D00368E8
:102140005A7B944207D10123002B19D1002C3BD19B
:10215000200003B0F0BD002C0CD01A7B944209D8AB
:102160001A6863001B19033BD3189B78002BEBD034
:102170000123E9E73E4B3F4A68213F4801F006FB57
:102180003E4B3F4A67213F4801F000FB03689C7BC0
:10219000002CDBD012D01A7B94420FD862001219A7
:1021A000033A19688C46624451789973002900D12A
:1021B000D9730023937053701370C7E72C4B2D4ACB
:1021C00068212D4801F0E2FA002C3AD02B681B7BE5
:1021D0009C4236D82C4BE3181B01AA6894466344F2
:1021E000009A1A60019A5A60089A9A60099ADA600D
:1021F0002E68002C2BD030D0337B9C422DD863002E
:102200001B19033B32689446634400229A705A704B
:102210001A70717B22003000FFF766FF70738442F2
:1022200000D095E7287D009A019B00F04FFD061E27
:1022300001D0002F17D00C9B002B00D188E71E7017
:1022400086E7124B124A3C210E4801F09FFA114BCF
:10225000114AA521084801F099FA054B054A682161
:10226000054801F093FA2868210000F067FFE2E7D3
:10227000189C0410E09E0410349C0410CC9C0410A4
:10228000EC9E0410A09B0410FFFFFF0FF49B0410B2
:10229000749E04109C9B0410D09E0410F0B5DE4682
:1022A00057464E464546E0B58BB00990002308934B
:1022B0008200B54BD658370052E0B44BB44A3F21A8
:1022C000B44801F063FAB44BB44A3C21B44801F07D
:1022D0005DFA002901D1002869D10021404600F0B3
:1022E00023FFA04219D12A686B6806920793AB6856
:1022F0009846EB689A464346002B14D0002C18D021
:102300003B681B7B9C4214D8631EFA68D35C08931D
:102310001B0218433861002015E0A24BA24A8E210F
:102320009F4801F033FAA14B9F4A92219C4801F04B
:102330002DFA994B9E4A4121994801F027FA002332
:102340009A46984600207B68BFF35F8F00221A6090
:1023500086F310884346002B32D1002800D10CE1CF
:1023600000F0FEFB02000B1EA7DB00200021069000
:1023700007917868EFF3108672B601680029FCD0E7
:10238000BFF35F8F396888464C7B002CD7D09AD03A
:10239000097B8C4297D8874965182D01B9688C460E
:1023A000654428686968801A9941002991DD2A6886
:1023B0006B68099800F08AFC00239A469846C2E7A9
:1023C000089B1B022343994651461800C04705004D
:1023D0000E007A68EFF3108B72B6136859424B41C6
:1023E000D9B2002BF9D1BFF35F8F002E1EDB002E78
:1023F00046DD3B69002B47D04B456DD100F0B0FB6B
:1024000002000B1E6EDB52197341002B70DB002B98
:1024100072DB002104910131039102945146019134
:10242000414600913800FFF77FFE4CE03B69002BEE
:10243000DDD04B4514D1069A079B521BB341002BAC
:1024400014DB002B16DB002104910131039102946F
:1024500051460191414600913800FFF765FE32E098
:10246000554B514AA1214E4801F090F901225242A8
:10247000524BE6E7454B464A3F21464801F086F974
:10248000002E01D1002DB4D13B68002C50D05A7BD6
:10249000944237D1012100294AD1DA7B002A4DD15B
:1024A0009A7B002A03D1DA7B002A5AD19C73DC7311
:1024B000002C5CD03B681B7B9C4258D8FA68013CDE
:1024C000135D0133135500233B617A68BFF35F8FBF
:1024D00013608BF3108843E7374B334AA42130480D
:1024E00001F054F9294B2A4A3F212A4801F04EF9BC
:1024F00001225242314B8AE7244B254A3F2125488D
:1025000001F044F9002C0DD01A7B94420AD86200E5
:102510001219033A1868844662449278002ABAD0A5
:102520000121B8E7264B274A6821274801F02EF9F8
:10253000264B274AF621244801F028F9002A0AD020
:10254000197B8A4207D851008A18033A19688C46C9
:1025500062445470A4E71A4B1A4A68211A4801F0E1
:1025600015F91C4B1A4AFB21174801F00FF90A4BC9
:102570000F4A41210A4801F009F90BB0F0BCBB46F3
:10258000B246A946A046F0BD30380020308E041077
:10259000409E0410848E0410F49B0410749E04105A
:1025A000A09B0410F49C0410589E04100C9D041071
:1025B000989E0410FFFFFF0F189D0410FFFFFF7F80
:1025C000189C0410E09E0410349C0410549D0410C8
:1025D000AC9E0410789D041010B50C4B5B68002B6A
:1025E00004D00A210A48FFF793FC10BD074C2300D2
:1025F000084A1021206800F0A7FC032000F0A4FA8C
:1026000003212000FFF7A8FCEBE7C0461C130020C5
:10261000583A0020C91F001010B5064B5B68002B0C
:1026200001D0044810BD044B044A5E21044801F067
:10263000ADF8C0461C1300208C9D0410809E041031
:10264000A09B0410F0B5DE4657464E464546E0B521
:102650008BB0804616001F00149B9A46159B994626
:1026600016AB1B789B461F2302AA944663440022A4
:102670001A702BE0002809D042461268127B904263
:1026800004D8421E4146C9688A5C41E0404B414A39
:102690004121414801F07AF807984CE0361BAF41E0
:1026A000002F07DB002F11DA3C4B3D4A3F213D480C
:1026B00001F06CF8012676423B4FF3E7374B384A7E
:1026C0003F21384801F062F8002F4FDB43465A683B
:1026D000EFF3108472B6136859424B41D9B2079197
:1026E000002BF8D1BFF35F8F1F3302AA94466344D7
:1026F00004930023039302934B46019353460093A4
:1027000032003B004046FFF70FFD031EB2D102002E
:1027100041464968BFF35F8F00250D6084F3108840
:10272000002B29D01F2302A98C4663441B78002B61
:10273000B2D112021043002B20D05B46002B1DD0DB
:102740004946D04704000D0003000B431DD000296B
:10275000A4DB00F005FA06000F1EAFDB36196F414F
:10276000002FB1DA012676420F4FADE70B4B0C4A32
:102770003F210C4801F00AF8012040420BB0F0BCA8
:10278000BB46B246A946A046F0BD0798F6E7C0464C
:10279000F49B0410989E0410A09B0410308E04102B
:1027A000409E0410848E0410FFFFFF7FF8B50400E4
:1027B000002900D162E04268EFF3108572B6136819
:1027C00058424341D8B2002BF9D1BFF35F8FCBB24F
:1027D0002268567BB3421BD10120002848D02069D3
:1027E00088422BD0090AC9B2002B2ED02068007B6A
:1027F00083422AD8581EE668305C88422BD00020DD
:102800006368BFF35F8F00221A6085F31088F8BDFC
:10281000002B0DD0167BB3420AD85E00F618033E9B
:102820001768BC466644B678002ED6D00120D4E79F
:10283000134B144A6821144800F0A8FF2C21134BB5
:10284000134AFF31134800F0A1FF134B134A4121F3
:10285000104800F09BFF1900100000F06FFC0028EA
:10286000CED199210E4B0A4A49000A4800F08EFF4A
:1028700023698B42C4D100232361C1E70020C6E74E
:10288000189C0410E09E0410349C0410B09D0410A9
:10289000289E0410A09B0410F49B0410989E041022
:1028A000D49D0410F0B587B006000F00EFF3058348
:1028B000002B1FD106246442E517A4197D418D42E7
:1028C00002D803D1844201D900240025002D14DB55
:1028D0000494059500F044F902000B1E13DBA41AC2
:1028E0009D41002D17DC14D03000390000F044F970
:1028F00007B0F0BD234800F0E3FF234B234A3F21FC
:10290000234800F043FF204B204A3F21204800F09D
:102910003DFF002CE8D0FFF77FFE002302930193D8
:102920001C4B0093049A059BFFF78CFE002818DAD5
:10293000DAE7002300E00023002BD5D1164B1A68FC
:10294000EFF3108172B61368002BFCD0BFF35F8FDA
:10295000114B1B68BFF35F8F00221A6081F3108850
:1029600020BF0499059A0D4B5B6A9A42E3D80B4845
:10297000806A884203D29A42DBD00123DCE701233C
:10298000DAE7C046D89D0410308E0410409E041033
:10299000848E0410991F0010583A00200040054012
:1029A00070B504000D0000F0DBF802000B1E0ADB1E
:1029B000200029008018594100290ADB00290CDB7E
:1029C000FFF770FF70BD084B084A3F21084800F030
:1029D000DDFE012040420749F0E7034B034A3F2157
:1029E000034800F0D3FEC046308E0410409E041011
:1029F000848E0410FFFFFF7F10B5FA22920000239F
:102A0000002102F0A1FFFFF7CBFF10BD70B584B02D
:102A100005000C00EFF30583002B1ED1FFF7FCFD32
:102A2000002302930193224B00932A002300FFF717
:102A300009FE061E23DD20BFFFF7EEFD3100FFF784
:102A4000B5FE1C4B5B6A9C422DD81A4A926AAA4278
:102A50002CD29C4225D0012026E0164B5B6A99427D
:102A600009D8144A926A824207D2994201D00120C1
:102A70001AE0002018E0002016E0012014E00D4BC1
:102A80005B6A9C4209D80B4A926AAA4207D29C42CE
:102A900001D0012008E0002006E0002004E0012031
:102AA00002E0002000E0002004B070BD0120FBE740
:102AB000991F00100040054070B5EFF305801038F5
:102AC000EFF3108C72B61A4B1B68002BFBD0BFF3D0
:102AD0005F8F01221300834016494B6316490B6038
:102AE000164909780C00C440224214D0114A546A95
:102AF0008200134D5259944206D38200114C125950
:102B000099430E4B197007E00A4A031D9B00995820
:102B10009950002200E00022BFF35F8F044B002198
:102B200019608CF31088002A00D0904770BDC04611
:102B3000280100D0004005403C700540793A002053
:102B40005C3A00209436002010B50100024A034888
:102B5000FEF782FE10BDC046109F0410773A002099
:102B6000044B5B6A034A906A1900536A9942F9D18F
:102B70007047C04600400540084B5B6A01E0074BC8
:102B80005B6A8B42FBD301E0044B5B6A8B4203D14F
:102B9000024B9B6A8342F7D37047C0460040054012
:102BA00070B504000D00FFF7DBFF02000B002000F2
:102BB0002900801859418B4202D804D1824202D99F
:102BC00001204042C117002902DBFFF7D5FF70BD8D
:102BD000024B034A3F21034800F0D8FD308E041019
:102BE000D49F0410848E041010B5002807DB064B18
:102BF0009A6A054B9B6A9B1A8342FAD310BD002147
:102C0000FFF7CEFFFAE7C0460040054010B50A4B7B
:102C1000984207D843011B1A9B001818C000FFF701
:102C2000E3FF10BDFA2292000023002102F08CFE87
:102C3000FFF7B6FFF5E7C0469BC4200070B504005F
:102C40000D00EFF3108672B61B4B1B68002BFBD0F8
:102C5000BFF35F8F002D1CD02000FEF7B1FE174B95
:102C600083420BD019002000FEF7B2FE01212000A4
:102C7000FEF79EFE0123A340114A1360A400114BEE
:102C8000E550BFF35F8F0C4B00221A6086F310886B
:102C900070BDA2000B4B0021D1500122A2400A4975
:102CA0000B7893430B7005492000FEF7D5FF0021F8
:102CB0002000FEF77DFEE4E7280100D0B92A0010CD
:102CC0003860054094360020793A0020F0B5DE46A1
:102CD00000B584B00400150001921E000293FFF7B6
:102CE0003FFF03958E4202D84ED185424CD9EFF377
:102CF000108B72B6274B1B68002BFBD0BFF35F8F86
:102D0000254A17780125A540EBB23B431370234BAE
:102D10005D63221D92000199D150A20020490298C2
:102D200050501B6A2B4212D11C4B1B6C2B4208D0FB
:102D30000020BFF35F8F174B00221A608BF31088BF
:102D400023E0184B184AC521184800F01FFDFFF773
:102D500007FF8E4214D802D1039B834210D80E4B3A
:102D60001B78BB420ED00D4B1D625D631F200440DB
:102D70000123A3400E4A1360074B1F701E38D8E78B
:102D80000020D6E70120D4E7012004B080BCBB4678
:102D9000F0BDC046280100D0793A0020004005402F
:102DA0005C3A0020349F0410B89F0410589F041010
:102DB00080E200E0EFF3108C72B60B4B1B68002B27
:102DC000FBD0BFF35F8F01238340084A1362084999
:102DD0000A789A430A70BFF35F8F034B00221A6090
:102DE0008CF310887047C046280100D00040054091
:102DF000793A002010B500291ED0037B99421BD8D8
:102E00004B005B18033B0468A4466344002919D0B7
:102E1000002A1DD0914221D0002A25D0047BA24255
:102E200022D804685000801803382018817019785F
:102E300000291FD11A7010BD104B114A682111488A
:102E400000F0A4FC104B114A6F310E4800F09EFCBC
:102E50000F4B0E4A70210B4800F098FC0D4B0B4AAB
:102E60007121084800F092FC044B054A682105488E
:102E700000F08CFC41701A70DDE7C046189C04100D
:102E8000F4A00410349C04109C9C0410E0A00410D6
:102E9000A89C0410B49C041070B506000D0014002A
:102EA000002914D0002A14D080687368984700283D
:102EB00006D0220029003000FFF79CFF280007E021
:102EC0002A0021003000FFF795FF200000E01000ED
:102ED00070BD0800FCE7000010B500234373013308
:102EE0008373037BC3730123027B9A4214D9002BA3
:102EF0000CD0027B934209D85A00D218033A0168D9
:102F00008C4662440133DBB25370EDE70B4B0C4A45
:102F100068210C4800F03AFC002A09D0924207D8F8
:102F2000016853009A18033A8A180023537010BDA1
:102F3000024B034A6821034800F028FC189C041047
:102F4000F4A00410349C041010B501734260836037
:102F5000FFF7C2FF10BD000070B50400081E00D1CD
:102F600070BD002934D0237B994231D84B005B18C7
:102F7000033B2268944663445A78002AF0D02DD04F
:102F8000237B9A422AD853009B18033B21688C4626
:102F900063445D7800215970002825D0237B984236
:102FA00022D843001B18033B21688C466344002150
:102FB000597001002000FFF76FFF06002900200074
:102FC000FFF7CAFF020031002000FFF765FFC7E7E7
:102FD000084B094A6821094800F0D8FB054B064A0E
:102FE0006821064800F0D2FB024B034A68210348DF
:102FF00000F0CCFB189C0410F4A00410349C0410C6
:1030000070B505000C00160000292FD034D0037BCA
:10301000994231D84B005B18033B026894466344E5
:103020005A78002A2ED19A78002A31D11978FFF7E0
:1030300093FF0300002E0AD0EA7B002A2ED1AA7B40
:10304000002A03D1EA7B002A3BD1AC73EC73002B3E
:103050003DD1002C4FD02B7B9C424CD82B6861007B
:103060000C19033C1C190023637070BD254B264AC4
:103070003821264800F08AFB254B264A682126483D
:1030800000F084FB254B204A3A21204800F07EFBCB
:10309000234B1D4A3B211D4800F078FB002A0AD033
:1030A000297B8A4207D851008A18033A29688C463E
:1030B00062445470C3E7164B164A6821164800F064
:1030C00065FB184B104A4221104800F05FFB002BB3
:1030D0000BD02A7B934208D843001B18033B2A6875
:1030E0009446634400229A70B3E7094B094A682169
:1030F000094800F04BFB064B064A6821064800F0E1
:1031000045FBC046EC9F0410CCA00410F49F0410B3
:10311000189C0410F4A00410349C041048A004105F
:1031200070A00410789D041070B504000A00457B5F
:103130002900FFF765FF6073280070BD70B50400BB
:10314000002967D0437B8B420ED0002911D0037B2E
:1031500099420ED84B005B18033B0268D018837865
:10316000002B0CD1002056E00121FFF7DDFF0120EC
:1031700051E0294B294A6821294800F007FB002B20
:1031800020D0227B93421DD85A00D318033B2268DB
:10319000D2182568EB5C8B421AD0002B1BD0227B07
:1031A000934218D85A00D318033B2268D218537898
:1031B0008B4216D0002BF0D11A4B1B4A6B211B48B7
:1031C00000F0E4FA144B154A6821154800F0DEFAC5
:1031D0004378137007E0104B104A6821104800F044
:1031E000D5FA437853700023837043700122200086
:1031F000FFF706FF0200617B814205D02000FFF748
:103200004BFE6073012006E0094B074A7121074815
:1032100000F0BCFA002070BD189C0410F4A004104B
:10322000349C0410209A0410B4A00410F49F0410DD
:1032300094A0041070B5046BE30701D4200070BDA6
:1032400002003032C0239B0113430A4A1A60456AC8
:10325000826AAD01AD18AD02062000F0BDF9064945
:1032600001F068FC0100280001F064FC0021FFF778
:1032700097FCE3E7010300004E0E000070B5040068
:103280000E001500FFF7D6FF22002C32E16A4E40F7
:10329000354080235B0113431D60206370BD000037
:1032A00070B505000C00062000F096F9C000210062
:1032B00001F040FCC60908D00E4B9E4216D87F2371
:1032C000184001303400460800E001246C62AE6210
:1032D000002200212800FFF7D1FF062000F07CF932
:1032E0008000A101891901F025FC70BD0026024C67
:1032F000ECE7C046FEFF0000FFFF000010B50539F7
:103300004901013AD2001143002B09D002220A439D
:10331000012B07D0002111436E22FFF7AFFF10BD34
:103320000022F4E70421F6E7002909D00A22064B1F
:103330009C466044434258414000044BC25270478F
:1033400080225200F3E7C0460080FCBF6C3A0020A8
:1033500070B505000C00062000F03EF9061E27D0CF
:10336000164B9D4226D08022D203154B1A60154B76
:103370001A60154B9B6811009943FAD1002128006F
:10338000FFF7D2FF21002800FFF78AFF0600002385
:10339000012208212800FFF7B1FF2A002C328023E8
:1033A0009B01134310221A60084B2B630323AB6469
:1033B000300070BD80221204D7E7C0460080034071
:1033C00000E0004000F0004000C0004001030000A9
:1033D000F8B5DE4657464E464546E0B505000F00B7
:1033E00092460A9A934250D31A0E91461E020A9AA6
:1033F00000233000494601F0DBFB80466C00641975
:10340000A400304B9C4664446368834200D26060F1
:103410002B1FDBB29B46012B3DD9C0239B012343CD
:10342000802212011A60AB00274A9958002907D060
:10343000506901F07FFB431C5800C0180338FDD2CF
:1034400053465A0123685A40E0231A4080235B0107
:1034500023431A605A46012A28D980239B0123431B
:10346000802212011A604346636042460023300006
:10347000494601F09DFBAD00134B58510120F0BCB3
:10348000BB46B246A946A046F8BD104B104A3321B0
:10349000104800F07BF9012FBFD1C0239B012343CB
:1034A00003221A60A368DB07FCD5C9E721687940CD
:1034B00003220A401A60A2680123BB401342FAD0DB
:1034C000CBE7C04600800040B437002000A10410C4
:1034D00074A1041014A1041030B583B00C2000F0C6
:1034E00011F9FEF799F900280DD0002304E09900A6
:1034F0002D4A2E4888500133092BF8D92A4B2C4AE3
:103500005A6203B030BD2B4B00229A6700F002F9DB
:10351000294B01221A60274B5B6C012BFBD1274BF7
:1035200003221A60234B9B6B012BFBD101330093C9
:103530000433234A0121234800F054F80523009363
:10354000214A0121214800F04DF8214B009300222F
:1035500002210420FFF73CFF1E4D00952B000022A6
:1035600001210520FFF734FF104C009423000022B6
:1035700000210720FFF72CFF0094230000220021E8
:103580000820FFF725FF0A4B0093230000220021AB
:103590000920FFF71DFF00952B00002200210620C7
:1035A000FFF716FFADE7C046B4370020006CDC0221
:1035B0001BB70000008000403CB0004030B000402D
:1035C000002F685900800240008C864700C00240EE
:1035D000001BB700405973078000014BC05870476B
:1035E000B4370020F0B5C64600B504000E00170041
:1035F0001D00374801F09EFA8046364BFA18364BCC
:103600009A4239D80100380001F094FA0200103AC9
:1036100098235B009A4235D86B1E062B38D8069B40
:10362000013B062B34D83F09474537D32D04069B71
:103630001A0315432368002B36DB284B9C4244D0E9
:1036400080225201264B1A60264B1A60264B9B683B
:1036500011009943FAD12660A060231DC022920177
:103660001A43212313602368002BFCDAE56008234A
:10367000136080BCB846F0BD1C4B1D4A11211D488B
:1036800000F084F81C4B1A4A19211A4800F07EF801
:103690001A4B174A1C21174800F078F8184B144AA7
:1036A0002321144800F072F822683F231340B342EC
:1036B000C3D1A3681B051B0D8342BED1E368EE2274
:1036C000D2021340AB42B8D1D3E780229201B9E7CE
:1036D000001BB70080E84BD380F8A93200C002403D
:1036E00000E0004000F0004000C0004084A1041051
:1036F000C4A20410E4A1041040A204105CA20410AF
:10370000A8A2041080239B000343014AD3627047A0
:1037100000800540074BAA2212011A602132FF32B5
:10372000DA60054B054A1A60024B5B68002BFBDA36
:103730007047C046004002400060024000B0FA00FE
:1037400000BEFDE703000A4A1268002A08D0084AB2
:103750001068C318074A9A4206D3054A1360704797
:10376000034A05491160F2E701204042F7E7C046ED
:1037700028380020000004207C3A002000207047F8
:1037800001204042704710B5FFF7DAFF10B582B054
:103790000C001900002A0CD0084B002A0BD0019213
:1037A000009323000200064802F060FC0120FFF7AE
:1037B000C7FF044BF1E7034AF1E7C046D0A204106B
:1037C000E0A2041020E4121070B52B4B2B4A1A60B3
:1037D0002B4B2C4A1A602C4B9A682A4B9343FAD1F4
:1037E0002A4C01E008CC9847294B9C42FAD3FFF7BA
:1037F00073FE234B274A1A60234B9B68DB43DB0194
:10380000FAD1254B40229A675A671A67DA66234C29
:1038100009E0234B234A87212348FFF7B7FF200005
:10382000FEF77EFB0834214B9C4209D22368002B13
:10383000F5D0012BEDD12000FEF77FFB0834F2E735
:103840001B4CA1681B4DC022280002F031FAA56074
:10385000EFF30583002B00D000BEFEF717F8FEF74C
:1038600049FBFEF7B9FE144C01E008CC9847134B16
:103870009C42FAD370BDC04600E00040BFCDFBFEC5
:1038800000F00040FE7F3C0000C00040401E0020D1
:10389000501E0020FFFFFF0100F00140381E0020F5
:1038A00010A30410A0A3041030A30410401E002095
:1038B00000ED00E000000020501E0020901E0020BF
:1038C0000FB400B583B0084802F0A0FB049B002BA6
:1038D00007D005A90191180002F0A8FB034802F0E7
:1038E00095FB0120FFF72CFF90A3041020F012108D
:1038F0009A4200D288547047704710B5002802D011
:103900000B684968984710BD0100002007E083005C
:103910001B185B00501C08601078C01830380A680B
:103920001378303BDBB2092BF1D97047F0B5DE4696
:1039300057464E464546E0B583B093461F000C9B64
:103940009A460D9C0E9B99460F9B9B0703D0B84649
:103950000F00060022E00192A34688464E46B94673
:103960000700B44207D2551C4B4641462020B847B9
:1039700001342A00F5E73D004F465C46019B9B461B
:10398000B1464646B84637002E0007E0013C551CBC
:103990005346185D43463900B0472A00002CF5D144
:1039A00035003E0047460F9B9B0707D4100003B02D
:1039B000F0BCBB46B246A946A046F0BDB0464E4656
:1039C000B9462F005D46531BB342EFD2541C4B4601
:1039D00041462020B8472200F5E7F0B5CE464746DD
:1039E00080B585B0944698460C9D0D9C0EAB1B7817
:1039F0009946109A119B129EB7071CD4002B0CD02D
:103A0000F7070AD54F46002F02D10C37374204D0B2
:103A1000013B02E030272F550134944201D21F2C84
:103A2000F8D9F70707D59C4205D21F2C03D83027B9
:103A30002F550134F5E7F70615D5770505D4002C89
:103A400003D0944224D09C4222D00F9A102A2BD02B
:103A50000F9A102A30D00F9A022A35D01F2C02D884
:103A600030222A5501341F2C05D84A46002A31D06D
:103A70002D222A5501340396029301940095434662
:103A80006246FFF753FF05B0C0BCB946B046F0BD73
:103A9000621E012C06D00F9F102F01D01400D4E716
:103AA000023CD2E71400D0E7B206D1D41F2CCFD805
:103AB00078222A550134D1E7B206CCD51F2CCAD8BA
:103AC00058222A550134C9E71F2CC7D860322A551D
:103AD0000134C3E7720703D52B222A550134CAE704
:103AE0003207C8D520222A550134C4E7F0B5DE4696
:103AF00057464E464546E0B593B081468A46089201
:103B000009931CAB10CB1B789B461E9D219B9846AE
:103B1000002C03D1102342469A4390468023DB00B9
:103B200046461E4042461A4212D0002C22D00026A1
:103B30000EE03033D9B2771C0AAB9955290020002A
:103B400000F0F8FFAC4216D31F2F14D83E0004003B
:103B50002900200000F0EEFFCBB2092BE9D9424644
:103B6000920605D54121C918C9B20A39C9B2E2E79E
:103B70006121F8E7270043460693209B05931F9B8E
:103B8000049303955B46029301970AAB0093099B4C
:103B9000089A51464846FFF720FF13B0F0BCBB46D9
:103BA000B246A946A046F0BDF0B5DE4657464E46A1
:103BB0004546E0B595B0089009910A920B931E9E78
:103BC0001F9C20AB1B789B46229B9946239D269BDE
:103BD0009A463300234303D1103352469A43924608
:103BE0008023DB0057461F4052461A4219D033004B
:103BF00023432DD0002714E03033DAB27B1C9846E3
:103C00000CABDA554A462B003000210000F0D0FF03
:103C1000A5421FD819D043461F2B1BD84746060084
:103C20000C004A462B003000210000F0C1FFD3B247
:103C3000092BE1D95246920605D54122D218D2B2BB
:103C40000A3AD2B2DAE76122F8E7B145E3D901E0F6
:103C50000023984653460693259B0593249B049383
:103C60004B4603935B460293434601930CAB009390
:103C70000B9B0A9A09990898FFF7AFFE15B0F0BCA4
:103C8000BB46B246A946A046F0BD0000F0B5DE46F0
:103C900057464E464546E0B591B083468A460C925B
:103CA00098461A9C08941B9D099522002B00200021
:103CB000290001F010FA002800D0E5E0012252426C
:103CC000D74B2000290001F001FA002800D0DBE0EA
:103CD00001225242D34B2000290001F0E1F90028D3
:103CE00000D0D1E000220023089E3000099D290069
:103CF00001F0D6F9002800D0DDE008980999069077
:103D000007918023DB001E9A1A400D921E9A1A42D8
:103D100001D106231C930698079904000D000A00A0
:103D20000600024300D1D1E0080D4005400DBE4C15
:103D3000A44660440A03120BBC4B13431F0001F05E
:103D4000DDF9BB4ABB4B01F060F9BB4ABB4B01F04C
:103D500035F904000D000022B94B3000390001F0A4
:103D600024F9B84AB84B01F050F902000B002000CA
:103D7000290001F023F901F0D9F9814601F0BEF9DB
:103D800004000D00B14AB24B01F03FF90022B14BE3
:103D900001F014F901F0CAF90600AF4AAF4B200058
:103DA000290001F032F904000D00300001F0A6F9FD
:103DB000AB4AAC4B01F029F902000B0020002900AE
:103DC00001F0F3F804000D0002000B0001F01DF9F2
:103DD0000A900B91A44BF31800261F0522002B001C
:103DE0002000290001F0EAF80E900F9122002B002C
:103DF00000208021C90501F0D8F804000D00002240
:103E00009A4B0A980B9901F0E2F80022984B01F0C6
:103E1000D5F802000B000A980B9901F0D8F800229F
:103E2000944B01F0CBF802000B000A980B9901F0BB
:103E3000CEF802000B002000290001F0BFF80200BC
:103E40000B000E980F9901F0C2F80022774B01F099
:103E5000B5F832003B0001F0D8F806000F0004006E
:103E60000D00069A079B01F031F9002830D001239C
:103E70005B429C46E14400227D4B3000390001F05A
:103E8000A6F804000D0023E01E9B04931D9B0393E2
:103E90001C9B0293089A099B0092019343460C9A3B
:103EA0005146584600F0FCF811B0F0BCBB46B24693
:103EB000A946A046F0BD0023002406930794069669
:103EC00080231B069C46654407951AE70023994604
:103ED0004B466333C62B1ED804261E9B1B0526D5D6
:103EE0002B0023430FD0644A644B0698079901F0D6
:103EF000E5F8002879D00022614B0698079901F077
:103F0000CFF8002871D01C9B4B4506DD4A46981A15
:103F1000431E1C9303E00526DFE700231C93802348
:103F2000DB001E9A1A431E920026002399461D9B11
:103F30009E4264D29F1B02231E9A1A400A921E9A26
:103F4000134202D0002E00D000274B46002B07D092
:103F500022002B000698079901F039F80690079186
:103F6000002200230898099901F09AF8002848D106
:103F7000444B1E9A1340049303971C9B0293069B89
:103F8000079C0093019443460C9A5146584600F012
:103F900087F8002E00D187E71E9B9B063DD545255F
:103FA000441C4346020051462800D8474B46DA17C6
:103FB0009B18534005220592013E0496002203926D
:103FC0000A3202924A46D00F0190009343462200E3
:103FD00051465846FFF78AFD0A9B002B00D163E744
:103FE00002005F460C9E1D9D54E01C9B002B9ED042
:103FF0000D9B002B9BD01C9B013B1C9397E700273C
:1040000099E7069C079D220029008020000684462F
:1040100061440B0006920793AAE76525C0E7C046F6
:10402000FFFFEF7FFFFFEFFF01FCFFFF0000F03F0E
:10403000FB799F501344D33FB3C8608B288AC63F97
:104040000000F83F61436F63A787D23F71A37909EE
:104050004F930A400000E03F1655B5BBB16B0240DC
:10406000EF39FAFE422EE63FFF03000000002C402D
:1040700000002440000018402D431CEBE2361A3F9C
:1040800080842E41FFF7FFFF541C434651462020F9
:10409000B8472200931BAB42F6D3100004E7C0469A
:1040A000F0B5DE4657464E464546E0B595B006901B
:1040B000079193469946209F1E9A1F9B1000190056
:1040C00001F009F8002831D101225242BF4B1E985D
:1040D0001F9900F0E5FF002837D101225242BC4B66
:1040E0001E981F9900F0F2FF00283DD10022B94B25
:1040F0001E981F9900F0EAFF002850D10022B64B0D
:104100001E981F9900F0CCFF002848D10022002300
:104110001E981F9900F0C4FF002850D10023984634
:10412000229B5B0500D4B6E0002458E0229B039359
:10413000219B029303230193A84B00934B465A46BD
:1041400007990698FFF7F2FB0EE1229B0393219B50
:10415000029304230193A24B00934B465A460799BE
:104160000698FFF7E3FBFFE00423229A1A40229906
:104170000B4210D09B4B002A0FD0042222990391AE
:1041800021990291019200934B465A46079906984D
:10419000FFF7CCFBE8E0944BEDE70322EEE7229B30
:1041A0000493219B039302971E9B1F9C00930194F1
:1041B0004B465A4607990698FFF768FDD4E01E9AC9
:1041C0001F9B0020002100F0F0FE1E901F91012394
:1041D0009846A5E70CAB30221A55013F01341F2C3D
:1041E00001D8092FF6D81E981F9900F09FFF0500EF
:1041F00000F084FF02000B001E981F9900F0D5FE0E
:10420000FA007A4B9B181A685B680A920B9300F0CD
:10421000FCFE0890099100F0ADFF060000F06AFF77
:1042200002000B000898099900F0BFFE0890099160
:1042300000226F4B00F04AFF00282ED001363000DC
:1042400000F058FF02000B000A980B9900F02EFFB7
:10425000002801D001350026002F2CD1280000F0C5
:104260004DFF02000B001E981F9900F09EFE0600F5
:104270000F0000225E4B00F013FF002846D1002201
:104280005B4B3000390000F021FF00283ED1EB07E6
:104290003CD501353AE0062746E70022544B089802
:1042A000099900F0FDFE0028D6D1002E01D0F307B9
:1042B000D2D50136D0E7AA461F2C11D8013F0A21DA
:1042C000300000F037FC651C30310CAB19550A2169
:1042D000300000F02FFC092E0ED906002C00EBE771
:1042E00055461F2C0CD87B1E002F09D00CAA30215C
:1042F00011551F000134F4E72B0055461C00F0E770
:104300001F2C03D80CAB2E221A5501341F2C10D8A9
:104310000A21280000F0E6FB661C30310CAB195571
:104320000A21280000F0DEFB051E01D03400EDE775
:1043300034000323229A1340012B1CD01F2C06D8D3
:104340004346002B32D00CAB2D221A550134229B50
:104350000393219B029301940CAB00934B465A4666
:1043600007990698FFF7E2FA15B0F0BCBB46B246D3
:10437000A946A046F0BD219B002B13D04346002B3D
:1043800002D10C3313420FD0219B013B2193190022
:1043900003E00CAB30221A5501348C42CED21F2CD4
:1043A000F7D9CBE72199F8E72199F6E7229B5B073C
:1043B00004D50CAB2B221A550134C8E7229B1B07EE
:1043C000C5D50CAB20221A550134C0E7FFFFEFFF23
:1043D000FFFFEF7F65CDCD4165CDCDC1BCA30410FE
:1043E000C0A30410B4A30410B0A30410A8A5041023
:1043F0000000E03FF0B5DE4657464E464546E0B584
:1044000093B082468B4690461193002900D1EBE28F
:1044100000275546119B1878002800D1E7E225288F
:1044200009D07C1C43463A005946A847119B0133EA
:1044300011932700EEE7013311930024119A1178AC
:104440000B00203BD8B2102803D88300D048C358B3
:104450009F460B00303BDBB2092B2CD92A292FD0E9
:1044600000230A93119B1A782E2A39D000239A46EA
:10447000119A1378683BD9B2122976D88B00C549B6
:10448000CB589F4601231C4301321192D6E70223E9
:104490001C4301321192D1E704231C4301321192D3
:1044A000CCE708231C4301321192C7E710231C43B9
:1044B00001321192C2E711A8FFF726FA0A90D1E75C
:1044C0001C9B1A1D1C921868002804DB0A90119B83
:1044D00001331193C6E702231C4343420A93F6E7D4
:1044E0008022D20014435A1C11925A781300303B98
:1044F000DBB2092B04D92A2A07D000239A46B7E752
:1045000011A8FFF701FA8246B2E71C9B1A1D1C9204
:104510001868002804DB8246119B01331193A7E73A
:104520000020F8E780235B002343511C119152784F
:104530006C2A01D01C0018E0C0239B001C430131F1
:10454000119112E080232343511C11915278682A63
:1045500001D01C0009E0C0231C430131119104E08B
:1045600080235B001C4301321192119B18780300D9
:10457000253BDAB2532A00D92CE29300864AD3585D
:104580009F4680239B001C4301321192EDE780235C
:104590005B001C4301321192E7E7782809D05828C4
:1045A00038D06F2838D0622838D010239C430A2690
:1045B00000E01026582833D0692803D0642801D0A1
:1045C0000C229443630501D50122944369282AD023
:1045D000642828D0A30500D59FE0E30500D5B8E006
:1045E000630600D4CAE01C9A111D1C911168FF22B9
:1045F0000A4005940A9B04935346039302960023B2
:104600000193009243463A0059462800FFF76EFA9C
:10461000070027E01026CDE70826CBE70226C9E7EA
:1046200020221443C8E7A30520D4E30550D4630631
:1046300066D51C9A111D1C911168FF220A40D317E0
:10464000D118594005940A9B04935346039302964C
:10465000D20F0192009143463A0059462800FFF7D5
:1046600045FA0700119B01331193D3E61C9BDA1D19
:1046700007218A43110008311C91116853689C4638
:10468000DB170C930D930C9A0D9B100048400E9075
:10469000624653400F930E980F990C9A0D9B801A07
:1046A00099410E900F9108940A9B079353460693E5
:1046B0000496002305936346DA0F0292009001915D
:1046C00043463A0059462800FFF76EFA0700C9E74B
:1046D0001C9A111D1C911268D317D11859400594CA
:1046E0000A9B0493534603930296D20F01920091C2
:1046F00043463A0059462800FFF7F8F90700B1E7AA
:10470000230605D51C9A111D1C910023D25E96E745
:104710001C9A111D1C91126891E71C9BDA1D072140
:104720008A43110008311C9108940A9B0793534651
:10473000069304960023059302931368546800932C
:10474000019443463A0059462800FFF72DFA070026
:1047500088E71C9A111D1C9105940A9B04935346EB
:1047600003930296002301931368009343463A0093
:1047700059462800FFF7BAF9070073E723060DD55D
:104780001C9A111D1C9112681204120C31E7C046CC
:10479000C8A304100CA4041058A404101C9A111DE2
:1047A0001C91126825E746281AD01C9B0733072264
:1047B00093431A0008321C9204940A9A03925246B8
:1047C00002925C681B680093019443463A00594684
:1047D0002800FFF765FC0700119B0133119319E6D0
:1047E00020231C43E1E7672801D0472802D180231A
:1047F0001B011C43452801D0472801D120231C431D
:104800001C9B0733072293431A0008321C9204941E
:104810000A9A0392524602925C681B6800930194C4
:1048200043463A0059462800FFF730FA0700119B2B
:1048300001331193EEE502231A00224092462342EF
:104840001FD001241C9B1A1D1C927A1C91461878BB
:1048500043463A005946A8475346002B16D1119BB0
:10486000013311934F46D5E5561C43465946202047
:10487000B847230032005C1C9D42F5D83D0017006C
:10488000E0E701233A002F000A9DF4E74A46A946D3
:104890000A9D06E0571C434659462020C84734006D
:1048A0003A00661CA542F5D84D469146D7E71C9BB9
:1048B0001A1D1C921B6899465346002B00D1013BE0
:1048C0004E4601E0013613003278002A02D05A1E0B
:1048D000002BF7D14B46F21A10928023DB00260002
:1048E0001E401C4203D0524501D953461093022367
:1048F0001A0022400B92234205D03A0037004C4662
:10490000A946554620E03A00109B5F46B3462E006C
:1049100006E0551C434639002020B04723002A00FA
:104920005C1C0A999942F4D835005E46BB46109447
:1049300037004C46A946554606E01D000134561C7A
:1049400043465946C84732002078002804D0002F3B
:10495000F4D06B1E002DF0D117004D460B9B002BA1
:1049600003D1119B0133119354E50A9F109B06E07C
:10497000561C434659462020A847230032005C1CA1
:104980009F42F5D81700ECE721231C431C9B1A1DFE
:104990001C921B68009305940823049353460393C9
:1049A000102302930023019343463A0059462800FE
:1049B000FFF79CF80700119B013311932AE57C1C3B
:1049C00043463A0059462520A847119B01331193CD
:1049D00027001FE57C1C43463A005946A847119B17
:1049E00001331193270015E50A4B9A4610E5AA46B4
:1049F000474502D343465A1E00E03A004346594613
:104A00000020D047380013B0F0BCBB46B246A946E0
:104A1000A046F0BDF93800100EB410B585B0010005
:104A200007AC08CC03940122009452420348FFF7DC
:104A3000E1FC05B010BC08BC03B01847F138001009
:104A400000B583B0009313000A0001000248FFF78D
:104A5000D1FC03B000BDC046F138001000B585B0F0
:104A6000029003910121009313004A4202A90248D7
:104A7000FFF7C0FC05B000BDFB3800100148042161
:104A8000014B184750130020AD4A001010B501002B
:104A900018231B8814221088984710BD10B50100F8
:104AA00018231B8816221088984710BDF0B5C646FB
:104AB00000B507000E0000250123984600E00135EF
:104AC000B5420AD2AC003C192068FFF7DFFF206036
:104AD0000028F4D100239846F1E7404680BCB84650
:104AE000F0BD0000124A936F9B0815D29066D16604
:104AF000002905D0FFE7FFE7FFE7516F106F704710
:104B000004B580210906C2175140002800D0C843CF
:104B100044F026F9002104BDF0B5146E556E576FB0
:104B2000166FFFF7E3FF1466556657671667F0BD0B
:104B3000000000D0114A936F9B0813D21066516693
:104B4000002905D0FFE7FFE7FFE7516F106F7047BF
:104B500004B5002801D00020C04344F001F9002131
:104B600004BDC046F0B5146E556E576F166FFFF753
:104B7000E5FF1466556657671667F0BD000000D064
:104B800094464A4A926F9208624601D228E0C04693
:104B9000F0B5464E346E756E776F366F00F020F8C4
:104BA0009446424A14665566576716676246F0BDDA
:104BB00094463E4A926F9208624601D254E0C04643
:104BC000F0B53A4E346E756E776F366F00F04CF874
:104BD0009446364A14665566576716676246F0BDB6
:104BE000002B24DB11D000293EDA00B5C943404236
:104BF00000D1013100F038F8C943404200D1013101
:104C0000DB43524200D1013300BD002AEBD1002822
:104C100001D1002905D00020C90FC90701D1C04327
:104C2000410800B544F074F80022002300BD00B52F
:104C300000290ADBDB43524200D1013300F014F8B3
:104C4000C943404200D1013100BDC943404200D1B7
:104C50000131DB43524200D1013300F005F8DB4360
:104C6000524200D1013300BD002923D1002B18D1BD
:104C7000002A0CD0BC460D4F38667A66002100230E
:104C8000FFE7FFE7FFE77A6F386F67467047002856
:104C900001D00748010000B544F03AF80022002393
:104CA00000BD02000B00002000217047000000D072
:104CB000FFFFFFFF002B00D0BFE0130C28D1002A1C
:104CC000E7D080B4114F39667A66FFE7FFE730B46A
:104CD000040C7B6F396F1B0423433B667A66FFE746
:104CE000FFE7FFE7C04684B27B6F3D6F1B042343A1
:104CF0003B667A66FFE7FFE7C04600232C042D0CD5
:104D00007A6F386F00196941B0BC7047000000D05D
:104D1000F0B594460025140E01D112020835140F87
:104D200001D112010435940F01D192000235D40F44
:104D300001D152000135D40B0134254F7C66254C3E
:104D40003C660E0C93B2FFE7FFE7FFE73C6F66435C
:104D5000360C7703BE467343DF0B5B04C01AB941C0
:104D6000130C7343DB18C91ACE086643360CB644DD
:104D700093B273431F0F1B01C01AB941130C734345
:104D80001F0B1B05C01AB941860D8F023E436643B7
:104D9000360C092D24DB520A7243801A7703460A27
:104DA0006643360C16235B1BDE40DF40BF196446AA
:104DB0006643821B7046043506330100D940A84083
:104DC000C01900D30131A24206D20023F0BD000079
:104DD000000000D0FFFFFFFF121B0130F3D3F1E70B
:104DE00009277F1BFE406446A2B27243801A00D29C
:104DF0000139220C7243130C1204821A99410B00E0
:104E00007046043513370100F940A840801900D3DB
:104E10000131002B02D1A2420AD2F0BD013000D3F1
:104E20000131121BFAD2013BF8D1A24200D2F0BDEF
:104E3000013000D30131121BF7E7F0B51C0C00D094
:104E400080E00CB400251C0A04D11B02160E33436B
:104E5000120208351C0B04D11B01160F334312013B
:104E600004359C0B04D19B00960F3343920002350E
:104E7000DC0B02D192185B4101351C00971864418C
:104E80000134464F7C66464C3C660E0CFFE7FFE75C
:104E9000FFE7C0463C6F6643360C7703BE4697B2C9
:104EA0007743C01B00D20139C01B00D201399FB229
:104EB0007743C91BC91B170C77437E04FF0B801B6C
:104EC000B941CE086643360C0C2D33DBB644120BC9
:104ED0001F053A431B0B97B27743C01B00D2013921
:104EE0009FB27743C91B170C77433E043F0C801BCE
:104EF000B941860D8F023E43664329277F1BFE4042
:104F00000C3D7746AF40BF1930BCA2B2ABB2724382
:104F10007343801A9941220C7243130C1204801AB5
:104F2000994102000B000137001BA941F9D2781EFC
:104F30000021F0BD0C277F1BFE4077467F0BAF4062
:104F4000FF19E0E700245D1C07D0144F7D66396629
:104F5000FFE7FFE7FFE7FFE73C6F95B29EB26543CF
:104F60006643401BB141150C1E0C65436643360475
:104F70002F0C3E432D04401BB141994204D2020044
:104F80000B0020000021F0BD01D19042F7D3801A20
:104F9000994101349942F2D3F6E70000000000D0B5
:104FA000FFFFFFFF48404140484018B41B4B5B687F
:104FB000FC46019308BD04DF1753001018B4174BCB
:104FC0001B68FC46019308BD00DF21530010944686
:104FD000134A926F920809D2624618B40F4BDB68ED
:104FE000FC46019308BD0CDFD95500100C4AF0B502
:104FF000146E556E576F166F6246FFF7EEFF084A44
:105000001466556657671667F0BD18B4034B9B6866
:10501000FC46019308BD08DF7D5400105438002081
:10502000000000D0FFB550404240504059404B4036
:10503000594000E0FFB5154F4C00640D03D0BC4251
:1050400004D10C0314D80020090D09055C00640D7F
:1050500003D0BC4204D11C030AD800221B0D1B053F
:1050600001264B4009D44B4003D58B4200D18242EC
:10507000FFBD9942FCD19042FFBD0B43DB180343B7
:105080001343F5D0C9434918FFBD0000FF070000D6
:1050900000B5FFF7CFFF01D0002000BD012000BD0B
:1050A00000B5FFF7C7FF804100BDC04600B5FFF760
:1050B000C1FF01D9002000BD012000BD00B5FFF7F0
:1050C000B1FF01D9002000BD012000BD00B5FFF7F0
:1050D000A9FF804100BD012040054A00121804D8F4
:1050E0005A00121801D80020704701207047002094
:1050F000704700000021002805D17047C1174840C3
:10510000401AFAD0C90713B5064B1B6898470CBC68
:10511000441CA2401005120B0349091B0905194341
:10512000114310BD543900201F04000010B54C007D
:10513000620D8023D218DB00D21A5B057E2A10DDB7
:105140009E3A13DACC170903490819435242D14059
:10515000640001341532202A05DAD0400843604348
:1051600010BD002010BD0846604310BDC80FC01818
:10517000013810BD18B4044B5B6AFC46019308BDAE
:1051800024DF8957001000005438002018B4044B65
:10519000DB6DFC46019308BD5CDF955800100000F4
:1051A00054380020C94211D300B5490049080022F3
:1051B00000F018F8002904D4002240428A41114628
:1051C00000BD80210906002000BD000018B4044B7A
:1051D000DB6EFC46019308BD6CDF975700100000A2
:1051E0005438002018B4044B9B6FFC46019308BD53
:1051F00078DFB357001000005438002018B4044B77
:10520000DB6FFC46019308BD7CDF215800100000D5
:105210005438002070B513231C78012C14D0012CB5
:1052200014DC022C02DC1F4A1F4B9A641F48FFF754
:105230002DFC1F4B186070BD99001A481A4A8850FF
:1052400001331F2BF8D9EAE70023FAE71948FFF7E3
:1052500025FC05001848FFF721FC023803789B0065
:105260007F2B19DD802229000F4800F021FD022C40
:10527000D7D1124B1A88B5231B029A4209D1104B81
:105280001A88104B9A4204D10F4B1A880F4B9A423E
:10529000C7D00020FEF714FB0D4B0E4A32210E48FA
:1052A000FEF774FADD520010543800204C33000031
:1052B0005439002053440000534600005438000085
:1052C000D8380000494600009C38000059460000CC
:1052D000F8A50410B0A604104CA6041007B560464B
:1052E000002800D100BE01880A0A0230DF2AFAD164
:1052F000C9B2820804D3028840880004104300E049
:105300000068024A5050039007BD00005438002046
:105310000FB403BC0CBCF0B50124E407634000E00B
:10532000F0B50C0DCF0F661E3605891B640503D33F
:10533000C943404200D30131640D03D0661CF60A14
:1053400007D0E41B00207F00791C89078912803C6C
:1053500024031D0DDF0F6E1E36059B1B6D0503D349
:10536000DB43524200D301336D0D03D06E1CF60AAD
:1053700007D0ED1B00227F007B1C9B079B12803D0A
:105380002D032F1B661B58D4A446202E46DA203747
:105390001400BC401D00BD40F24033412A43801838
:1053A0005941CB0F05D0C943C0430022644250414C
:1053B000514162464D0D28D10D0D07D100281FD057
:1053C000241940414941013A0D0DF9D0640006D33A
:1053D000013000D30131002C01D140084000013AD6
:1053E0000BD4941CE40A04D112051144DB071944C0
:1053F000F0BDD907204B194300E0D9070020F0BDCC
:105400000029DDD1002CDBD1F0BD0132C6074008F8
:10541000CD0728434908002EE1D0D9E73C2E29DAF0
:10542000203E40371400BC4000D00124F240144319
:105430001A00BB401C43D317ACE7AC46202F08DA58
:1054400020360400B4400D00B540F84039412843EF
:10545000A5E73C2F0CDA203F40360400B44000D0D2
:105460000124F84004430800B1400C43C117EAE7A7
:1054700010001900002494E70000F07FF0B50C0D37
:10548000661E3605891BE60A6405640D02D0651C9C
:10549000ED0A04D0002001210905803C2403A44624
:1054A0001C0D671E3F05DB1BE70A6405640D02D077
:1054B000651CED0A04D0002201231B05803C240357
:1054C0007740644497B484B296B27443070C7E4329
:1054D000150C6F4380B26843361802D301200004D4
:1054E0003F183004350C00197D41844688B29AB2C9
:1054F00050430C0C62431F0C7C438EB27E439219C6
:1055000002D301263604A4191604170C3618674175
:1055100001BC81B29AB25143040C62431B0C5C4340
:1055200080B25843121802D301200004241810043A
:10553000130C401863412D185E410020474106BC02
:1055400088B293B258430C0C6343120C544389B293
:1055500051435B1802D301210904641819041A0C81
:10556000091862416D1856410020474118BCF902E4
:10557000720D1143F0026A0D1043ED020A0D03D1C2
:105580006D1940414941013B124E9B1B7600B342CD
:105590000ED26D0007D301300026714166463543B7
:1055A00001D1400840001B05C918E4072144F0BDA3
:1055B0000BDA013306D1013004D101314F0D01D096
:1055C0004908F2E7E1070020F0BD0136310500206F
:1055D000EBE70000FF030000F0B51C0D671E3F0560
:1055E000DB1BE70A6405640D02D0661CF60A04D0D2
:1055F000002201231B05803C2403D0252D06002614
:10560000F6432E661E096E66CE0FF619B4464900A3
:105610004F0D02D07E1CF60A03D000200021403F2F
:105620003F033E1BB600B444013F7F05C91B490838
:105630002E6F013676089C02950D25437543ED13B8
:105640007543AD1301356D10F603761B0CB4CC0217
:10565000450D2C43A2B2B3B25A43270C7B43350C01
:105660006F43A4B26C431B1902D3012424043F19D5
:105670001C041D0CA4187D4124196D41009A91B29F
:10568000ACB26143170C7C432B0C5F4392B25A437C
:10569000A41802D301221204BF182204230C5218AA
:1056A0007B41019C6C431B19520ED9010A434401F2
:1056B000A01A81B2B2B2514303145A43360C734359
:1056C00087B27743D617D21900277E4136049B193B
:1056D0001704160C7F185E417316ED18F3010026AF
:1056E00080337541A90F06D16400690AE8055B0A99
:1056F000184309D22FE00422944480337541A90A4B
:10570000A8059B0A184326D3404149412404009A26
:10571000019B0D005543641B4343E41A95B286B2C6
:105720007543170C7E43030C5F4392B25A43B6187D
:1057300002D301221204BF183204330C52197B41E8
:1057400052429C41002C02D40022013051414008B9
:10575000CA071043490802B06246D7079210084BA7
:10576000D218084B9A4203D212058918C919F0BD04
:105770000020002A01DC3900F0BD01331905F5E7EE
:10578000FD030000FE070000002200B5203200F0FB
:1057900010F8080000BD002200B500F00CF8CA1790
:1057A0009A4200D100BDD8430121C907414000BD44
:1057B00000220B150AD410B5944600F0A7F8141473
:1057C000013400DA0021CB17144C204700200021BF
:1057D00070476244343A0CD40C2A07DA0400914032
:1057E000904052422032D440214310BDD843D94387
:1057F00010BD203207D40C46944052422032114151
:10580000D040204310BD0800C917203203D45242B3
:105810002032104110BD1800190010BDD3570010E0
:105820004A00520D144BD21A13DDFF2A1EDAD2059C
:10583000CB0FDB071A43C300400F0903490A084393
:1058400010435B0001D301D0013070474308FBD205
:10585000704702D0C80FC00770470A031213013205
:10586000F8D1420F072AF5D1012200E0FF22C80F2C
:1058700000028018C00570478003000000210A0064
:10588000002104E000210A00C11704E000220023E7
:1058900006E0C0460022CB1758405940C01A994133
:1058A00030B5184CA21A002903D1010010D00020F5
:1058B000203A4C1512D104D2013A001849414C0D3E
:1058C000FAD3114CA24204D212058918DB07C91879
:1058D00030BDD243520D00200021F5E703D4013A38
:1058E00000184941FBD50B324405C00A4D05284339
:1058F000C90A640003D0002460416141E1E7E0D3BC
:105900004408F8E732040000FE0700000A0DCC0F3F
:10591000531E1B05C91A520503D3C943404200D385
:105920000131520D03D0531CDB0A07D0121B00209B
:105930006400611C89078912803A1203014BD21A54
:1059400070470000FF03000051434343C9188C46D1
:10595000110C83B24B4310B4040C614392B280B279
:10596000504362431C041B0C001910BC5941130422
:10597000120CC0185141614470470000484041403A
:10598000484000239C46114B5B68184700239C4607
:105990000E4B1B6818470E4A936F9B0804D20023D6
:1059A0009C460A4BDB681847F0B5146E556E576F6E
:1059B000166FFFF7F4FF064A1466556657671667B9
:1059C000F0BD00239C46014B9B68184758390020C6
:1059D000000000D007B548404140484001E0C046C3
:1059E00007B54200120E03D0FF2A03D1420218D895
:1059F000C00DC0054A00120E03D0FF2A03D14A028F
:105A00000FD8C90DC9050122414005D4414001D537
:105A1000814207BD884207BD0143491801D0C043F8
:105A2000001807BD00B5FFF7DBFF01D0002000BD67
:105A3000012000BD00B5FFF7D3FF804100BDC04687
:105A400000B5FFF7CDFF01D9002000BD012000BD4A
:105A500000B5FFF7BFFF804100BD01231B064200D8
:105A6000D21804D84A00D21801D80020704701206B
:105A70007047491A002807D108467047C10FC90767
:105A800000D54042002817D0F44603B40B4B1B68E6
:105A9000984706BC81409E384042803107D20B06B1
:105AA00007D04900490AC005104308436047013048
:105AB000F8E7490A8902F5E77047000054390020E9
:105AC00000239C46014B5B6A1847000058390020B0
:105AD000034BDB6FFC4618477CDF155C00100000B1
